:100000000C942A000C9447000C9447000C94470071
:100010000C9447000C9447000C9447000C94F11C7E
:100020000C9447000C94BE1C0C9447000C944700A1
:100030000C9447000C9447000C9447000C94470024
:100040000C9447000C9447000C9447000C94470014
:100050000C94470011241FBECFE5D8E0DEBFCDBF12
:1000600011E0A0E6B0E0ECEEFEE302C005900D92D8
:10007000AC34B107D9F711E0ACE4B1E001C01D9296
:10008000A235B107E1F70E94B31C0C94741F0C94C5
:100090000000EF92FF920F931F937B018C0120E0F1
:1000A00030E040E05FE40E94490388238CF0C801FF
:1000B000B70120E030E040E05FE40E94C1010E940F
:1000C000A9039B01AC01205030404040504806C07D
:1000D000C801B7010E94A9039B01AC01B901CA0183
:1000E0001F910F91FF90EF900895A0E0B0E0EBE733
:1000F000F0E00C94F81EDC012B01FA019C91923087
:1001000008F439C1EB018881823008F433C194309E
:1001100069F4843009F02FC111969C91119789815F
:10012000981709F428C1A6E3B1E025C1843009F489
:1001300021C18230A9F4923009F01DC19A01AD01AC
:1001400088E0EA010990AE01E90109929E0181501F
:10015000C1F7E201898111969C918923818308C1AD
:10016000923009F407C112962D903C901397EB0141
:100170008A819B811496AD90BD90CD90DC901797AD
:10018000EC80FD800E811F819101281B390BB90184
:1001900037FF04C066277727621B730B6032710537
:1001A0000CF061C0121613066CF537014801062EDB
:1001B00004C096948794779467940A94D2F721E0C8
:1001C00030E040E050E004C0220F331F441F551FB1
:1001D0006A95D2F721503040404050402E213F21B7
:1001E00040235123211531054105510521F021E01E
:1001F00030E040E050E079018A01E628F72808293C
:1002000019293CC0232BD1F1260E371E350146019A
:10021000062E04C096948794779467940A94D2F734
:1002200021E030E040E050E004C0220F331F441FC3
:10023000551F6A95D2F721503040404050402A2146
:100240003B214C215D21211531054105510521F04E
:1002500021E030E040E050E059016A01A628B728CB
:10026000C828D9280BC0821593052CF01C01AA249C
:10027000BB24650103C0EE24FF24870111969C91E5
:10028000D20111968C91981709F445C0992339F041
:10029000A80197012A193B094C095D0906C0A6016E
:1002A00095012E193F09400B510B57FD08C01182D3
:1002B0003382228224833583468357831DC081E0A5
:1002C00081833382228288279927DC01821B930B4A
:1002D000A40BB50B84839583A683B7830DC0220F2F
:1002E000331F441F551F24833583468357838281E0
:1002F000938101979383828324813581468157813D
:10030000DA01C9010197A109B1098F5F9F4FAF4F72
:10031000BF4328F30BC0918333822282EA0CFB1C7B
:100320000C1D1D1DE482F5820683178383E0808304
:10033000248135814681578157FF1AC0C901AA27F8
:1003400097FDA095BA2F81709070A070B0705695EF
:10035000479537952795822B932BA42BB52B848318
:100360009583A683B7838281938101969383828349
:10037000DF0101C0D201CD01CDB7DEB7E2E10C94BF
:10038000141FA0E2B0E0E7ECF1E00C94041F6983D5
:100390007A838B839C832D833E834F835887E9E048
:1003A000EE2EF12CEC0EFD1ECE010196B7010E943F
:1003B000D2048E010F5E1F4FCE010596B8010E9438
:1003C000D2048A8991E089278A8BC701B801AE01DE
:1003D000475E5F4F0E9475000E94FD03A096E6E015
:1003E0000C94201FA0E2B0E0E8EFF1E00C94041FB1
:1003F00069837A838B839C832D833E834F835887C5
:10040000F9E0EF2EF12CEC0EFD1ECE010196B701A6
:100410000E94D2048E010F5E1F4FCE010596B801D7
:100420000E94D204C701B801AE01475E5F4F0E942F
:1004300075000E94FD03A096E6E00C94201FA0E248
:10044000B0E0E5E2F2E00C94F81E69837A838B83D6
:100450009C832D833E834F835887CE010196BE0136
:10046000675F7F4F0E94D204CE010596BE016F5E8A
:100470007F4F0E94D2049985923088F0898982301A
:10048000C8F0943019F4823051F404C0843029F457
:10049000923081F486E391E0C6C0923049F420E0C6
:1004A0009A858A89981321E02A87CE010996BBC0D4
:1004B000823049F420E09A858A89981321E02A8BBA
:1004C000CE014196B0C02D843E844F8458886D88FB
:1004D0007E888F88988CEE24FF248701AA24BB2471
:1004E000650140E050E060E070E0E0E0F0E0C10174
:1004F00081709070892BE9F0E60CF71C081D191D1E
:100500009A01AB012A0D3B1D4C1D5D1D80E090E062
:10051000A0E0B0E0E614F7040805190520F481E036
:1005200090E0A0E0B0E0BA01A901480F591F6A1F8E
:100530007B1FAA0CBB1CCC1CDD1C97FE08C081E0F5
:1005400090E0A0E0B0E0A82AB92ACA2ADB2A3196B6
:10055000E032F10549F0660C771C881C991C569412
:10056000479437942794C3CFFA85EA892B893C892D
:100570008B859C85280F391F2E5F3F4F17C0CA01FE
:1005800081709070892B61F016950795F794E79428
:1005900080E090E0A0E0B0E8E82AF92A0A2B1B2BC3
:1005A00076956795579547952F5F3F4F77FDE7CF36
:1005B0000CC0440F551F661F771F17FD4160EE0CDE
:1005C000FF1C001F111F21503040403090E05907A0
:1005D00090E0690790E4790760F32B8F3C8FDB0193
:1005E000CA018F779070A070B07080349105A1051A
:1005F000B10561F447FD0AC0E114F10401051105DC
:1006000029F0405C5F4F6F4F7F4F40781A8EFE1786
:1006100011F081E08A8F4D8F5E8F6F8F78A383E01A
:10062000898FCE0149960E94FD03A096E2E10C94C9
:10063000141FA8E1B0E0EFE1F3E00C94041F69831C
:100640007A838B839C832D833E834F83588789E0F5
:10065000E82EF12CEC0EFD1ECE010196B7010E9492
:10066000D2048E010F5E1F4FCE010596B8010E9485
:10067000D2048985823040F08989823028F0C70110
:10068000B8010E944A0501C08FEF6896E6E00C941D
:10069000201FA8E1B0E0EFE4F3E00C94041F6983AD
:1006A0007A838B839C832D833E834F83588789E095
:1006B000E82EF12CEC0EFD1ECE010196B7010E9432
:1006C000D2048E010F5E1F4FCE010596B8010E9425
:1006D000D2048985823040F08989823028F0C701B0
:1006E000B8010E944A0501C08FEF6896E6E00C94BD
:1006F000201FA8E1B0E0EFE7F3E00C94041F69834A
:100700007A838B839C832D833E834F83588789E034
:10071000E82EF12CEC0EFD1ECE010196B7010E94D1
:10072000D2048E010F5E1F4FCE010596B8010E94C4
:10073000D2048985823040F08989823028F0C7014F
:10074000B8010E944A0501C081E06896E6E00C9479
:10075000201FACE0B0E0EFEAF3E00C94081F6983DF
:100760007A838B839C83CE010196BE016B5F7F4FA2
:100770000E94D2048D81823061F1823050F1843048
:1007800021F48E81882351F12EC02F81388537FDC9
:1007900020C06E812F3131051CF06623F9F023C093
:1007A0008EE190E0821B930B29853A854B855C8511
:1007B00004C056954795379527958A95D2F76623B5
:1007C000B1F050954095309521953F4F4F4F5F4F79
:1007D0000EC020E030E040E050E009C02FEF3FEFD6
:1007E0004FEF5FE704C020E030E040E050E8B9019F
:1007F000CA012C96E2E00C94241FDF92EF92FF9244
:100800000F931F93FC01E480F58006811781D1804E
:100810008081823048F480E090E0A0E1B0E0E82AF6
:10082000F92A0A2B1B2BA5C0843009F49FC0823003
:1008300021F4EE24FF24870105C0E114F104010531
:10084000110519F4E0E0F0E096C0628173819FEF3A
:10085000623879070CF05BC022E83FEF261B370BAC
:100860002A3131052CF020E030E040E050E02AC091
:10087000B801A701022E04C0769567955795479554
:100880000A94D2F781E090E0A0E0B0E004C0880FC5
:10089000991FAA1FBB1F2A95D2F70197A109B10979
:1008A0008E219F21A023B1230097A105B10521F03E
:1008B00081E090E0A0E0B0E09A01AB01282B392B59
:1008C0004A2B5B2BDA01C9018F779070A070B07052
:1008D00080349105A105B10539F427FF09C0205CDA
:1008E0003F4F4F4F5F4F04C0215C3F4F4F4F5F4F13
:1008F000E0E0F0E02030A0E03A07A0E04A07A0E402
:100900005A0710F0E1E0F0E079018A0127C0603871
:10091000710564F5FB01E158FF4FD801C7018F77DE
:100920009070A070B07080349105A105B10539F4C4
:10093000E7FE0DC080E490E0A0E0B0E004C08FE3EB
:1009400090E0A0E0B0E0E80EF91E0A1F1B1F17FFA1
:1009500005C016950795F794E794319687E01695AC
:100960000795F794E7948A95D1F705C0EE24FF2404
:100970008701EFEFF0E06E2F679566276795902F60
:100980009F77D794DD24D7948E2F8695492F462BB9
:10099000582F5D29B701CA011F910F91FF90EF9069
:1009A000DF900895FC01DB01408151812281622F9B
:1009B0006F7770E0221F2227221F9381892F880FD3
:1009C000822B282F30E0991F9927991F11969C930D
:1009D000119721153105A9F54115510561057105DD
:1009E00011F482E037C082E89FEF13969C938E93B8
:1009F00012979A01AB0167E0220F331F441F551F66
:100A00006A95D1F783E08C930DC0220F331F441FEA
:100A1000551F12968D919C911397019713969C9355
:100A20008E931297203080E0380780E0480780E4FA
:100A3000580758F314962D933D934D935C93179755
:100A400008952F3F310579F4411551056105710570
:100A500019F484E08C93089564FF03C081E08C93C3
:100A600012C01C9210C02F57304013963C932E9307
:100A7000129783E08C9387E0440F551F661F771F02
:100A80008A95D1F7706414964D935D936D937C9322
:100A9000179708951F93DC01FB019C91923008F495
:100AA00047C08081823008F443C0943051F41196DD
:100AB0001C91843099F58181682F70E0611B710968
:100AC0003FC0843021F0923031F48230B9F181811D
:100AD000882389F12DC011961C9111978230F1F075
:100AE00081811817D9F412962D913C911397828128
:100AF00093818217930794F028173907BCF0149656
:100B00008D919D910D90BC91A02D248135814681C0
:100B10005781281739074A075B0718F4112341F05A
:100B20000AC082179307A407B50740F4112319F0F0
:100B300061E070E005C06FEF7FEF02C060E070E041
:100B4000CB011F910895DF93CF9300D00F92CDB7C3
:100B5000DEB719821B8243C082E060E00E940C096C
:100B60008B81982F9C5F82E0692F41E00E949B0659
:100B70008B81882F90E09C012C5F3F4F81E090E0BB
:100B800002C0880F991F2A95E2F78095898382E039
:100B900069810E9450091A821CC082E06A810E9409
:100BA0007108882399F48A81882F90E0880F991F13
:100BB000880F991F982F8B81890F8F5F0E94F405F2
:100BC0000F900F900F90CF91DF9108958A818F5FE2
:100BD0008A838A81843008F38B818F5F8B838B813A
:100BE000843008F4B9CFB6CFDF93CF9300D000D0D4
:100BF000CDB7DEB78A8319828A81282F30E03C8303
:100C00002B838B819C818830910509F470C02B81E6
:100C10003C81293031055CF58B819C8184309105C4
:100C200009F459C02B813C81253031059CF48B811E
:100C30009C818230910509F448C02B813C8123308E
:100C400031050CF045C08B819C818130910509F400
:100C500039C067C02B813C812630310509F441C081
:100C60008B819C81873091050CF03EC037C02B8171
:100C70003C812C30310509F446C08B819C818D303C
:100C800091055CF42B813C812A303105B1F18B81D7
:100C90009C818B309105A4F52DC02B813C812E3099
:100CA0003105B9F18B819C818E3091057CF12B81CE
:100CB0003C812F30310579F18B819C818031910508
:100CC00069F12FC087E089832EC088E089832BC01B
:100CD00089E0898328C085E2898325C084E08983EF
:100CE00022C085E089831FC086E089831CC08AE218
:100CF000898319C081E0898316C082E0898313C08B
:100D000083E0898310C08DE289830DC08DE08983E3
:100D10000AC0198208C08DE3898305C08BE28983EC
:100D200002C08A81898389810F900F900F900F9064
:100D3000CF91DF910895DF93CF9300D000D00F9231
:100D4000CDB7DEB789836A834B838A81883008F008
:100D5000D5C08981843008F0D1C08981282F30E046
:100D60003D832C838C819D818130910509F443C0A2
:100D70002C813D81223031052CF48C819D8100979E
:100D800071F0BCC02C813D812230310509F45FC077
:100D90008C819D818330910509F485C0AFC08B8122
:100DA0008130A1F4AAE3B0E0EAE3F0E08081482FCB
:100DB0008A81282F30E081E090E0022E02C0880F67
:100DC000991F0A94E2F7842B8C9398C0AAE3B0E0B1
:100DD000EAE3F0E08081482F8A81282F30E081E02B
:100DE00090E0022E02C0880F991F0A94E2F78095C6
:100DF00084238C9383C08B818130A1F4A7E3B0E07E
:100E0000E7E3F0E08081482F8A81282F30E081E0FD
:100E100090E0022E02C0880F991F0A94E2F7842BFB
:100E20008C936CC0A7E3B0E0E7E3F0E08081482F4B
:100E30008A81282F30E081E090E0022E02C0880FE6
:100E4000991F0A94E2F7809584238C9357C08B8175
:100E50008130A1F4A4E3B0E0E4E3F0E08081482F26
:100E60008A81282F30E081E090E0022E02C0880FB6
:100E7000991F0A94E2F7842B8C9340C0A4E3B0E05E
:100E8000E4E3F0E08081482F8A81282F30E081E080
:100E900090E0022E02C0880F991F0A94E2F7809515
:100EA00084238C932BC08B818130A1F4A1E3B0E02B
:100EB000E1E3F0E08081482F8A81282F30E081E053
:100EC00090E0022E02C0880F991F0A94E2F7842B4B
:100ED0008C9314C0A1E3B0E0E1E3F0E08081482FFF
:100EE0008A81282F30E081E090E0022E02C0880F36
:100EF000991F0A94E2F7809584238C930F900F90AA
:100F00000F900F900F90CF91DF910895DF93CF93C3
:100F100000D000D00F92CDB7DEB789836A834B83B0
:100F20008A81883008F0D5C08981843008F0D1C02A
:100F30008981282F30E03D832C838C819D818130F5
:100F4000910509F443C02C813D81223031052CF4F8
:100F50008C819D81009771F0BCC02C813D81223035
:100F6000310509F45FC08C819D818330910509F4BE
:100F700085C0AFC08B818130A1F4ABE3B0E0EBE37F
:100F8000F0E08081482F8A81282F30E081E090E0D6
:100F9000022E02C0880F991F0A94E2F7842B8C93CB
:100FA00098C0ABE3B0E0EBE3F0E08081482F8A81AA
:100FB000282F30E081E090E0022E02C0880F991FB8
:100FC0000A94E2F7809584238C9383C08B818130CF
:100FD000A1F4A8E3B0E0E8E3F0E08081482F8A8143
:100FE000282F30E081E090E0022E02C0880F991F88
:100FF0000A94E2F7842B8C936CC0A8E3B0E0E8E39A
:10100000F0E08081482F8A81282F30E081E090E055
:10101000022E02C0880F991F0A94E2F7809584235C
:101020008C9357C08B818130A1F4A5E3B0E0E5E358
:10103000F0E08081482F8A81282F30E081E090E025
:10104000022E02C0880F991F0A94E2F7842B8C931A
:1010500040C0A5E3B0E0E5E3F0E08081482F8A815D
:10106000282F30E081E090E0022E02C0880F991F07
:101070000A94E2F7809584238C932BC08B81813076
:10108000A1F4A2E3B0E0E2E3F0E08081482F8A819E
:10109000282F30E081E090E0022E02C0880F991FD7
:1010A0000A94E2F7842B8C9314C0A2E3B0E0E2E34D
:1010B000F0E08081482F8A81282F30E081E090E0A5
:1010C000022E02C0880F991F0A94E2F780958423AC
:1010D0008C930F900F900F900F900F90CF91DF9106
:1010E0000895DF93CF9300D000D00F92CDB7DEB735
:1010F0008A836B8319828B81883008F084C08A814F
:10110000843008F080C08A81282F30E03D832C8312
:101110004C815D814130510579F18C819D81823016
:10112000910534F42C813D812115310569F06BC0A6
:101130004C815D8142305105B9F18C819D818330B4
:10114000910509F449C05FC0E9E3F0E08081282FF0
:1011500030E08B81882F90E0A90102C0559547951A
:101160008A95E2F7CA0181709070882319F081E0B6
:10117000898349C0198247C0E6E3F0E08081282FC7
:1011800030E08B81882F90E0A90102C055954795EA
:101190008A95E2F7CA0181709070882319F081E086
:1011A000898331C019822FC0E3E3F0E08081282FCA
:1011B00030E08B81882F90E0A90102C055954795BA
:1011C0008A95E2F7CA0181709070882319F081E056
:1011D000898319C0198217C0E0E3F0E08081282FCD
:1011E00030E08B81882F90E0A90102C0559547958A
:1011F0008A95E2F7CA0181709070882319F081E026
:10120000898301C0198289810F900F900F900F90F0
:101210000F90CF91DF910895DF93CF9300D000D04E
:10122000CDB7DEB789836A838981843090F589815F
:10123000282F30E03C832B838B819C81813091056A
:10124000D1F02B813C81223031052CF48B819C81A3
:10125000009761F01EC02B813C812230310581F066
:101260008B819C818330910581F013C0EAE3F0E02B
:101270008A8180830EC0E7E3F0E08A81808309C021
:10128000E4E3F0E08A81808304C0E1E3F0E08A8156
:1012900080830F900F900F900F90CF91DF91089562
:1012A000DF93CF9300D000D0CDB7DEB789836A83B8
:1012B0008981843090F58981282F30E03C832B830D
:1012C0008B819C8181309105D1F02B813C81223032
:1012D00031052CF48B819C81009761F01EC02B811D
:1012E0003C812230310581F08B819C8183309105D6
:1012F00081F013C0EBE3F0E08A8180830EC0E8E365
:10130000F0E08A81808309C0E5E3F0E08A81808390
:1013100004C0E2E3F0E08A8180830F900F900F9089
:101320000F90CF91DF910895DF93CF9300D000D03D
:10133000CDB7DEB78A8319828A81843090F58A819D
:10134000282F30E03C832B838B819C818130910559
:10135000D1F02B813C81223031052CF48B819C8192
:10136000009761F01EC02B813C812230310581F055
:101370008B819C818330910581F013C0E9E3F0E01B
:10138000808189830EC0E6E3F0E08081898309C013
:10139000E3E3F0E08081898304C0E0E3F0E0808152
:1013A000898389810F900F900F900F90CF91DF91DB
:1013B0000895DF93CF93CDB7DEB72E970FB6F8948D
:1013C000DEBF0FBECDBF81E060E041E00E949B0622
:1013D00081E061E041E00E949B0681E062E041E043
:1013E0000E949B0680E090E0A0EAB1E48B879C8796
:1013F000AD87BE876B857C858D859E8520E030E03E
:101400004AEF54E40E941F02DC01CB018F839887CE
:10141000A987BA876F81788589859A8520E030E031
:1014200040E85FE30E94790388232CF481E090E098
:101430009E838D833FC06F81788589859A8520E062
:101440003FEF4FE757E40E94190318164CF56B85E0
:101450007C858D859E8520E030E040E251E40E944D
:101460001F02DC01CB01BC01CD010E944900DC015F
:10147000CB019E838D830FC088EC90E09C838B838F
:101480008B819C810197F1F79C838B838D819E8159
:1014900001979E838D838D819E81009769F714C08B
:1014A0006F81788589859A850E944900DC01CB018E
:1014B0009E838D838D819E819A83898389819A8180
:1014C0000197F1F79A83898380E06FEF0E940C09FE
:1014D00088E30E947A0A8CE00E947A0A81E00E94E6
:1014E0007A0A2E960FB6F894DEBF0FBECDBFCF910D
:1014F000DF910895DF93CF93CDB7DEB7E9970FB6AD
:10150000F894DEBF0FBECDBF89AF81E060E040E060
:101510000E94860780E090E0A0E8BFE38DAB9EAB21
:10152000AFABB8AF6DA97EA98FA998AD20E030E030
:101530004AEF54E40E941F02DC01CB0189AB9AAB55
:10154000ABABBCAB69A97AA98BA99CA920E030E020
:1015500040E85FE30E94790388232CF481E090E067
:1015600098AB8FA73FC069A97AA98BA99CA920E055
:101570003FEF4FE757E40E94190318164CF56DA989
:101580007EA98FA998AD20E030E040E251E40E94AE
:101590001F02DC01CB01BC01CD010E944900DC012E
:1015A000CB0198AB8FA70FC088EC90E09EA78DA7CA
:1015B0008DA59EA50197F1F79EA78DA78FA598A948
:1015C000019798AB8FA78FA598A9009769F714C0CA
:1015D00069A97AA98BA99CA90E944900DC01CB01C9
:1015E00098AB8FA78FA598A99CA78BA78BA59CA527
:1015F0000197F1F79CA78BA781E062E041E00E9490
:10160000860780E090E0A0E8BFE38FA398A7A9A792
:10161000BAA76FA178A589A59AA520E030E04AEF86
:1016200054E40E941F02DC01CB018BA39CA3ADA359
:10163000BEA36BA17CA18DA19EA120E030E040E87B
:101640005FE30E94790388232CF481E090E09AA361
:1016500089A33FC06BA17CA18DA19EA120E03FEF9B
:101660004FE757E40E94190318164CF56FA178A5AF
:1016700089A59AA520E030E040E251E40E941F02D3
:10168000DC01CB01BC01CD010E944900DC01CB0192
:101690009AA389A30FC088EC90E098A38F8F8F8DB9
:1016A00098A10197F1F798A38F8F89A19AA101972B
:1016B0009AA389A389A19AA1009769F714C06BA185
:1016C0007CA18DA19EA10E944900DC01CB019AA3BF
:1016D00089A389A19AA19E8F8D8F8D8D9E8D019753
:1016E000F1F79E8F8D8F80E069AD0E94500980E0F8
:1016F00090E0A0E8BFE3898F9A8FAB8FBC8F698D94
:101700007A8D8B8D9C8D20E030E04AEF54E40E946E
:101710001F02DC01CB018D8B9E8BAF8BB88F6D8947
:101720007E898F89988D20E030E040E85FE30E9459
:10173000790388232CF481E090E09C8B8B8B3FC055
:101740006D897E898F89988D20E03FEF4FE757E4C0
:101750000E94190318164CF5698D7A8D8B8D9C8D1E
:1017600020E030E040E251E40E941F02DC01CB01A6
:10177000BC01CD010E944900DC01CB019C8B8B8B0D
:101780000FC088EC90E09A8B898B89899A890197A0
:10179000F1F79A8B898B8B899C8901979C8B8B8B1A
:1017A0008B899C89009769F714C06D897E898F8920
:1017B000988D0E944900DC01CB019C8B8B8B8B891F
:1017C0009C89988B8F878F8598890197F1F7988BE3
:1017D0008F8781E062E040E00E94860780E090E031
:1017E000A0E8BFE38B879C87AD87BE876B857C8530
:1017F0008D859E8520E030E04AEF54E40E941F0270
:10180000DC01CB018F839887A987BA876F817885A0
:1018100089859A8520E030E040E85FE30E94790303
:1018200088232CF481E090E09E838D833FC06F81FC
:10183000788589859A8520E03FEF4FE757E40E943D
:10184000190318164CF56B857C858D859E8520E0E7
:1018500030E040E251E40E941F02DC01CB01BC01F8
:10186000CD010E944900DC01CB019E838D830FC016
:1018700088EC90E09C838B838B819C810197F1F7AE
:101880009C838B838D819E8101979E838D838D8127
:101890009E81009769F714C06F81788589859A8544
:1018A0000E944900DC01CB019E838D838D819E8146
:1018B0009A83898389819A810197F1F79A83898331
:1018C000E9960FB6F894DEBF0FBECDBFCF91DF9182
:1018D0000895DF93CF93CDB7DEB7E9970FB6F894AD
:1018E000DEBF0FBECDBF89AF81E060E041E00E9466
:1018F000860780E090E0A0E8BFE38DAB9EABAFAB86
:10190000B8AF6DA97EA98FA998AD20E030E04AEF6D
:1019100054E40E941F02DC01CB0189AB9AABABAB54
:10192000BCAB69A97AA98BA99CA920E030E040E86A
:101930005FE30E94790388232CF481E090E098AB68
:101940008FA73FC069A97AA98BA99CA920E03FEF86
:101950004FE757E40E94190318164CF56DA97EA9AC
:101960008FA998AD20E030E040E251E40E941F02D0
:10197000DC01CB01BC01CD010E944900DC01CB019F
:1019800098AB8FA70FC088EC90E09EA78DA78DA580
:101990009EA50197F1F79EA78DA78FA598A90197FE
:1019A00098AB8FA78FA598A9009769F714C069A96C
:1019B0007AA98BA99CA90E944900DC01CB0198ABB4
:1019C0008FA78FA598A99CA78BA78BA59CA50197EE
:1019D000F1F79CA78BA781E062E041E00E948607B7
:1019E00080E090E0A0E8BFE38FA398A7A9A7BAA7DB
:1019F0006FA178A589A59AA520E030E04AEF54E4CC
:101A00000E941F02DC01CB018BA39CA3ADA3BEA34C
:101A10006BA17CA18DA19EA120E030E040E85FE3B6
:101A20000E94790388232CF481E090E09AA389A393
:101A30003FC06BA17CA18DA19EA120E03FEF4FE7AD
:101A400057E40E94190318164CF56FA178A589A5D3
:101A50009AA520E030E040E251E40E941F02DC0140
:101A6000CB01BC01CD010E944900DC01CB019AA34E
:101A700089A30FC088EC90E098A38F8F8F8D98A1D9
:101A80000197F1F798A38F8F89A19AA101979AA343
:101A900089A389A19AA1009769F714C06BA17CA1C1
:101AA0008DA19EA10E944900DC01CB019AA389A3CC
:101AB00089A19AA19E8F8D8F8D8D9E8D0197F1F7B3
:101AC0009E8F8D8F80E069AD0E94500980E090E08C
:101AD000A0E8BFE3898F9A8FAB8FBC8F698D7A8D19
:101AE0008B8D9C8D20E030E04AEF54E40E941F0271
:101AF000DC01CB018D8B9E8BAF8BB88F6D897E897E
:101B00008F89988D20E030E040E85FE30E94790300
:101B100088232CF481E090E09C8B8B8B3FC06D89F7
:101B20007E898F89988D20E03FEF4FE757E40E9430
:101B3000190318164CF5698D7A8D8B8D9C8D20E0DC
:101B400030E040E251E40E941F02DC01CB01BC0105
:101B5000CD010E944900DC01CB019C8B8B8B0FC017
:101B600088EC90E09A8B898B89899A890197F1F7A3
:101B70009A8B898B8B899C8901979C8B8B8B8B890A
:101B80009C89009769F714C06D897E898F89988D2B
:101B90000E944900DC01CB019C8B8B8B8B899C893B
:101BA000988B8F878F8598890197F1F7988B8F870E
:101BB00081E062E040E00E94860780E090E0A0E8DB
:101BC000BFE38B879C87AD87BE876B857C858D85C2
:101BD0009E8520E030E04AEF54E40E941F02DC01C1
:101BE000CB018F839887A987BA876F81788589858C
:101BF0009A8520E030E040E85FE30E947903882383
:101C00002CF481E090E09E838D833FC06F817885C6
:101C100089859A8520E03FEF4FE757E40E9419033A
:101C200018164CF56B857C858D859E8520E030E00F
:101C300040E251E40E941F02DC01CB01BC01CD0156
:101C40000E944900DC01CB019E838D830FC088EC8C
:101C500090E09C838B838B819C810197F1F79C831F
:101C60008B838D819E8101979E838D838D819E8143
:101C7000009769F714C06F81788589859A850E94DD
:101C80004900DC01CB019E838D838D819E819A83E7
:101C9000898389819A810197F1F79A838983E996EB
:101CA0000FB6F894DEBF0FBECDBFCF91DF91089580
:101CB000DF93CF9300D00F92CDB7DEB79B838A839B
:101CC00019820EC08981282F30E08A819B81FC0116
:101CD000E20FF31F80810E94690C89818F5F8983E5
:101CE0008981282F30E08A819B81FC01E20FF31F5C
:101CF0008081882339F70F900F900F90CF91DF915B
:101D00000895DF93CF9300D000D00F92CDB7DEB708
:101D10008A836B838A81282F30E03D832C838C81DA
:101D20009D8181309105C1F02C813D8122303105AA
:101D30002CF48C819D81009761F019C02C813D812C
:101D40002230310569F08C819D818330910561F0ED
:101D50000EC08B8189830BC08B81805C898307C017
:101D60008B81805F898303C08B81805B89838981BC
:101D700080680E947A0A0F900F900F900F900F903A
:101D8000CF91DF910895DF93CF9300D000D0CDB7EE
:101D9000DEB789836A835C834B8389816A810E9471
:101DA000810E8B819C810E94580E0F900F900F9096
:101DB0000F90CF91DF910895DF93CF93CDB7DEB72A
:101DC00062970FB6F894DEBF0FBECDBF9A8B898B9A
:101DD00089899A899E012F5F3F4FB9014AE050E0FF
:101DE0000E942F1FCE0101960E94580E62960FB6D8
:101DF000F894DEBF0FBECDBFCF91DF910895DF9382
:101E0000CF93CDB7DEB781E00E947A0ACF91DF9100
:101E100008950F931F93DF93CF93CDB7DEB7CE5EB8
:101E2000D0400FB6F894DEBF0FBECDBFAFE5B0E037
:101E3000EFE5F0E0808180688C930E94D9098EE301
:101E400091E00E94B51DBAC30E94FF0E80E690E0AB
:101E50000E94580ECE018B519F4F0E94311AFE01F5
:101E6000E352FF4F80E090E0A8E4B2E480839183E6
:101E7000A283B3838E0107521F4FFE01E352FF4F2F
:101E8000608171818281938120E030E04AEF54E4E7
:101E90000E941F02DC01CB01F80180839183A283A1
:101EA000B383FE01E752FF4F60817181828193818C
:101EB00020E030E040E85FE30E947903882344F4A7
:101EC000FE01E952FF4F81E090E09183808364C07E
:101ED000FE01E752FF4F608171818281938120E092
:101EE0003FEF4FE757E40E94190318160CF043C068
:101EF000FE01E352FF4F608171818281938120E076
:101F000030E040E251E40E941F02DC01CB018E016F
:101F100009521F4FBC01CD010E944900DC01CB01D9
:101F2000F801918380831FC0FE01EB52FF4F88ECC4
:101F300090E091838083FE01EB52FF4F808191817D
:101F40000197F1F7FE01EB52FF4F91838083DE0191
:101F5000A952BF4FFE01E952FF4F80819181019745
:101F600011969C938E93FE01E952FF4F80819181DF
:101F70000097D1F627C08E0109521F4FFE01E7528C
:101F8000FF4F60817181828193810E944900DC0151
:101F9000CB01F80191838083DE01AD52BF4FFE017A
:101FA000E952FF4F808191818D939C93FE01ED5208
:101FB000FF4F808191810197F1F7FE01ED52FF4FB4
:101FC00091838083CE018B519F4F0E94511B0E94B1
:101FD000FF0E8FE690E00E94580ECE0186519F4F73
:101FE0000E94311AFE01E153FF4F80E090E0A8E427
:101FF000B2E480839183A283B3838E0105531F4F84
:10200000FE01E153FF4F608171818281938120E065
:1020100030E04AEF54E40E941F02DC01CB01F801DA
:1020200080839183A283B383FE01E553FF4F6081D8
:1020300071818281938120E030E040E85FE30E947B
:102040007903882344F4FE01E753FF4F81E090E0D9
:102050009183808364C0FE01E553FF4F60817181ED
:102060008281938120E03FEF4FE757E40E941903FC
:1020700018160CF043C0FE01E153FF4F60817181DF
:102080008281938120E030E040E251E40E941F020F
:10209000DC01CB018E0107531F4FBC01CD010E9413
:1020A0004900DC01CB01F801918380831FC0FE0150
:1020B000E953FF4F88EC90E091838083FE01E95360
:1020C000FF4F808191810197F1F7FE01E953FF4FA6
:1020D00091838083DE01A753BF4FFE01E753FF4F7B
:1020E00080819181019711969C938E93FE01E75315
:1020F000FF4F808191810097D1F627C08E01075351
:102100001F4FFE01E553FF4F6081718182819381F2
:102110000E944900DC01CB01F80191838083DE013C
:10212000AB53BF4FFE01E753FF4F808191818D93E9
:102130009C93FE01EB53FF4F808191810197F1F752
:10214000FE01EB53FF4F91838083CE0186519F4F59
:102150000E94511BFE01EF53FF4F80E090E0A8E486
:10216000B2E480839183A283B3838E0103541F4F13
:10217000FE01EF53FF4F608171818281938120E0E6
:1021800030E04AEF54E40E941F02DC01CB01F80169
:1021900080839183A283B383FE01E354FF4F608168
:1021A00071818281938120E030E040E85FE30E940A
:1021B0007903882344F4FE01E554FF4F81E090E069
:1021C0009183808364C0FE01E354FF4F608171817D
:1021D0008281938120E03FEF4FE757E40E9419038B
:1021E00018160CF043C0FE01EF53FF4F6081718160
:1021F0008281938120E030E040E251E40E941F029E
:10220000DC01CB018E0105541F4FBC01CD010E94A2
:102210004900DC01CB01F801918380831FC0FE01DE
:10222000E754FF4F88EC90E091838083FE01E754F0
:10223000FF4F808191810197F1F7FE01E754FF4F35
:1022400091838083DE01A554BF4FFE01E554FF4F0B
:1022500080819181019711969C938E93FE01E554A4
:10226000FF4F808191810097D1F627C08E010554E0
:102270001F4FFE01E354FF4F608171818281938182
:102280000E944900DC01CB01F80191838083DE01CB
:10229000A954BF4FFE01E554FF4F808191818D937A
:1022A0009C93FE01E954FF4F808191810197F1F7E2
:1022B000FE01E954FF4F918380830E945B1EFE0163
:1022C000EC51FF4F8083FE01ED54FF4F80E090E022
:1022D000A8E4B2E480839183A283B3838E01015585
:1022E0001F4FFE01ED54FF4F608171818281938108
:1022F00020E030E04AEF54E40E941F02DC01CB01F1
:10230000F80180839183A283B383FE01E155FF4FDF
:10231000608171818281938120E030E040E85FE359
:102320000E947903882344F4FE01E355FF4F81E0C6
:1023300090E09183808364C0FE01E155FF4F60818E
:1023400071818281938120E03FEF4FE757E40E9443
:10235000190318160CF043C0FE01ED54FF4F6081C5
:1023600071818281938120E030E040E251E40E945B
:102370001F02DC01CB018E0103551F4FBC01CD01B3
:102380000E944900DC01CB01F801918380831FC0CA
:10239000FE01E555FF4F88EC90E091838083FE01BC
:1023A000E555FF4F808191810197F1F7FE01E555D9
:1023B000FF4F91838083DE01A355BF4FFE01E3559C
:1023C000FF4F80819181019711969C938E93FE011E
:1023D000E355FF4F808191810097D1F628C08E018F
:1023E00003551F4FFE01E155FF4F608171818281CE
:1023F00093810E944900DC01CB01F8019183808325
:10240000DE01A755BF4FFE01E355FF4F808191814B
:1024100011969C938E93FE01E755FF4F8081918129
:102420000197F1F7FE01E755FF4F91838083FE018D
:10243000EC51FF4F8081882339F00E94FF0E8CE71A
:1024400090E00E94580E06C00E94FF0E8BE890E0BC
:102450000E94580EFE01EB55FF4F80E090E8ABE381
:10246000B5E480839183A283B3838E010F551F4F00
:10247000FE01EB55FF4F608171818281938120E0E5
:1024800030E04AEF54E40E941F02DC01CB01F80166
:1024900080839183A283B383FE01EF55FF4F608158
:1024A00071818281938120E030E040E85FE30E9407
:1024B0007903882344F4FE01E156FF4F81E090E068
:1024C0009183808364C0FE01EF55FF4F608171816D
:1024D0008281938120E03FEF4FE757E40E94190388
:1024E00018160CF043C0FE01EB55FF4F608171815F
:1024F0008281938120E030E040E251E40E941F029B
:10250000DC01CB018E0101561F4FBC01CD010E94A1
:102510004900DC01CB01F801918380831FC0FE01DB
:10252000E356FF4F88EC90E091838083FE01E356F1
:10253000FF4F808191810197F1F7FE01E356FF4F34
:1025400091838083DE01A156BF4FFE01E156FF4F0C
:1025500080819181019711969C938E93FE01E156A3
:10256000FF4F808191810097D1F628C08E010156DE
:102570001F4FFE01EF55FF4F608171818281938172
:102580000E944900DC01CB01F80191838083DE01C8
:10259000A556BF4FFE01E156FF4F808191811196F4
:1025A0009C938E93FE01E556FF4F808191810197A8
:1025B000F1F7FE01E556FF4F91838083FE01EC5158
:1025C000FF4F8081882309F43FCC0E94EB1B0E94BF
:1025D000A305FE01ED51FF4F8083FE01E956FF4F39
:1025E00080E090E0AAEFB3E480839183A283B38379
:1025F0008E010D561F4FFE01E956FF4F608171811C
:102600008281938120E030E04AEF54E40E941F026F
:10261000DC01CB01F80180839183A283B383FE01A7
:10262000ED56FF4F608171818281938120E030E01F
:1026300040E85FE30E947903882344F4FE01EF56EB
:10264000FF4F81E090E09183808364C0FE01ED56EE
:10265000FF4F608171818281938120E03FEF4FE7DE
:1026600057E40E94190318160CF043C0FE01E95606
:10267000FF4F608171818281938120E030E040E2F0
:1026800051E40E941F02DC01CB018E010F561F4F47
:10269000BC01CD010E944900DC01CB01F80191830E
:1026A00080831FC0FE01E157FF4F88EC90E09183CB
:1026B0008083FE01E157FF4F808191810197F1F7FF
:1026C000FE01E157FF4F91838083DE01AF56BF4F7C
:1026D000FE01EF56FF4F80819181019711969C93E7
:1026E0008E93FE01EF56FF4F808191810097D1F6C6
:1026F00027C08E010F561F4FFE01ED56FF4F608120
:102700007181828193810E944900DC01CB01F80133
:1027100091838083DE01A357BF4FFE01EF56FF4F29
:10272000808191818D939C93FE01E357FF4F8081BF
:1027300091810197F1F7FE01E357FF4F9183808369
:10274000FE01ED51FF4F80810E94441EFE01E757BC
:10275000FF4F80E090E0A8E4B2E480839183A283FD
:10276000B3838E010B571F4FFE01E757FF4F608168
:1027700071818281938120E030E04AEF54E40E942D
:102780001F02DC01CB01F80180839183A283B38314
:10279000FE01EB57FF4F608171818281938120E0C0
:1027A00030E040E85FE30E947903882344F4FE01AF
:1027B000ED57FF4F81E090E09183808364C0FE017C
:1027C000EB57FF4F608171818281938120E03FEF61
:1027D0004FE757E40E94190318160CF043C0FE019E
:1027E000E757FF4F608171818281938120E030E063
:1027F00040E251E40E941F02DC01CB018E010D5723
:102800001F4FBC01CD010E944900DC01CB01F80142
:10281000918380831FC0FE01EF57FF4F88EC90E04B
:1028200091838083FE01EF57FF4F80819181019753
:10283000F1F7FE01EF57FF4F91838083DE01AD5723
:10284000BF4FFE01ED57FF4F808191810197119697
:102850009C938E93FE01ED57FF4F808191810097ED
:10286000D1F628C08E010D571F4FFE01EB57FF4FC9
:1028700060817181828193810E944900DC01CB01DA
:10288000F80191838083DE01A158BF4FFE01ED570F
:10289000FF4F8081918111969C938E93FE01E158A8
:1028A000FF4F808191810197F1F7FE01E158FF4FC1
:1028B00091838083FE01ED51FF4F80818B3209F0BF
:1028C000A0C10E94FF0E80E690E00E94580ECE014B
:1028D0008B519F4F0E94311AFE01E558FF4F80E057
:1028E00090E0A8E4B2E480839183A283B3838E0155
:1028F00009581F4FFE01E558FF4F608171818281A9
:10290000938120E030E04AEF54E40E941F02DC0192
:10291000CB01F80180839183A283B383FE01E95840
:10292000FF4F608171818281938120E030E040E837
:102930005FE30E947903882344F4FE01EB58FF4FC4
:1029400081E090E09183808364C0FE01E958FF4FED
:10295000608171818281938120E03FEF4FE757E4EE
:102960000E94190318160CF043C0FE01E558FF4FF2
:10297000608171818281938120E030E040E251E406
:102980000E941F02DC01CB018E010B581F4FBC01BE
:10299000CD010E944900DC01CB01F80191838083C5
:1029A0001FC0FE01ED58FF4F88EC90E091838083BB
:1029B000FE01ED58FF4F808191810197F1F7FE01F3
:1029C000ED58FF4F91838083DE01AB58BF4FFE016E
:1029D000EB58FF4F80819181019711969C938E93C4
:1029E000FE01EB58FF4F808191810097D1F627C0FF
:1029F0008E010B581F4FFE01E958FF4F6081718116
:102A0000828193810E944900DC01CB01F80191830E
:102A10008083DE01AF58BF4FFE01EB58FF4F80812E
:102A200091818D939C93FE01EF58FF4F808191819E
:102A30000197F1F7FE01EF58FF4F91838083CE019C
:102A40008B519F4F0E94511BFE01EC51FF4F108292
:102A50000E945B1EFE01EC51FF4F8083FE01EC5192
:102A6000FF4F8081882319F00E94021CAECD0E9486
:102A70005B1EFE01EE51FF4F8083FE01EE51FF4FC2
:102A80008081833018F00E94271C9FCD0E94FF0E8A
:102A90008BE890E00E94580EFE01E359FF4F80E062
:102AA00090E4ACE1B5E480839183A283B3838E018B
:102AB00007591F4FFE01E359FF4F608171818281E9
:102AC000938120E030E04AEF54E40E941F02DC01D1
:102AD000CB01F80180839183A283B383FE01E75980
:102AE000FF4F608171818281938120E030E040E876
:102AF0005FE30E947903882344F4FE01E959FF4F04
:102B000081E090E09183808364C0FE01E759FF4F2C
:102B1000608171818281938120E03FEF4FE757E42C
:102B20000E94190318160CF043C0FE01E359FF4F31
:102B3000608171818281938120E030E040E251E444
:102B40000E941F02DC01CB018E0109591F4FBC01FD
:102B5000CD010E944900DC01CB01F8019183808303
:102B60001FC0FE01EB59FF4F88EC90E091838083FA
:102B7000FE01EB59FF4F808191810197F1F7FE0132
:102B8000EB59FF4F91838083DE01A959BF4FFE01AE
:102B9000E959FF4F80819181019711969C938E9303
:102BA000FE01E959FF4F808191810097D1F60DCD4B
:102BB0008E0109591F4FFE01E759FF4F6081718156
:102BC000828193810E944900DC01CB01F80191834D
:102BD0008083DE01AD59BF4FFE01E959FF4F80816F
:102BE000918111969C938E93FE01ED59FF4F808148
:102BF00091810197F1F7FE01ED59FF4F9183808399
:102C0000E4CCFE01ED51FF4F80818D3209F0DDCC27
:102C10000E94FF0E8AE990E00E94580ECE018B516F
:102C20009F4F0E94311AFE01E15AFF4F80E090E071
:102C3000A8E4B2E480839183A283B3838E01055A12
:102C40001F4FFE01E15AFF4F6081718182819381A4
:102C500020E030E04AEF54E40E941F02DC01CB0187
:102C6000F80180839183A283B383FE01E55AFF4F6D
:102C7000608171818281938120E030E040E85FE3F0
:102C80000E947903882344F4FE01E75AFF4F81E054
:102C900090E09183808364C0FE01E55AFF4F60811C
:102CA00071818281938120E03FEF4FE757E40E94DA
:102CB000190318160CF043C0FE01E15AFF4F608162
:102CC00071818281938120E030E040E251E40E94F2
:102CD0001F02DC01CB018E01075A1F4FBC01CD0141
:102CE0000E944900DC01CB01F801918380831FC061
:102CF000FE01E95AFF4F88EC90E091838083FE014A
:102D0000E95AFF4F808191810197F1F7FE01E95A5D
:102D1000FF4F91838083DE01A75ABF4FFE01E75A20
:102D2000FF4F80819181019711969C938E93FE01B4
:102D3000E75AFF4F808191810097D1F627C08E011D
:102D4000075A1F4FFE01E55AFF4F60817181828152
:102D500093810E944900DC01CB01F80191838083BB
:102D6000DE01AB5ABF4FFE01E75AFF4F80819181D0
:102D70008D939C93FE01EB5AFF4F808191810197C7
:102D8000F1F7FE01EB5AFF4F91838083CE018B5107
:102D90009F4F0E94511BFE01EC51FF4F10820E9479
:102DA0005B1EFE01EC51FF4F8083FE01EC51FF4F93
:102DB0008081882309F4CDC20E94FF0E89EA90E049
:102DC0000E94580ECE018B519F4F0E94311AFE0176
:102DD000EF5AFF4F80E090E0A8E4B2E48083918353
:102DE000A283B3838E01035B1F4FFE01EF5AFF4F97
:102DF000608171818281938120E030E04AEF54E468
:102E00000E941F02DC01CB01F80180839183A28321
:102E1000B383FE01E35BFF4F608171818281938107
:102E200020E030E040E85FE30E947903882344F427
:102E3000FE01E55BFF4F81E090E09183808364C0F9
:102E4000FE01E35BFF4F608171818281938120E00D
:102E50003FEF4FE757E40E94190318160CF043C0E8
:102E6000FE01EF5AFF4F608171818281938120E0E2
:102E700030E040E251E40E941F02DC01CB018E01F0
:102E8000055B1F4FBC01CD010E944900DC01CB0155
:102E9000F801918380831FC0FE01E75BFF4F88EC40
:102EA00090E091838083FE01E75BFF4F80819181F9
:102EB0000197F1F7FE01E75BFF4F91838083DE010D
:102EC000A55BBF4FFE01E55BFF4F808191810197BC
:102ED00011969C938E93FE01E55BFF4F808191815B
:102EE0000097D1F627C08E01055B1F4FFE01E35B03
:102EF000FF4F60817181828193810E944900DC01D2
:102F0000CB01F80191838083DE01A95BBF4FFE01F5
:102F1000E55BFF4F808191818D939C93FE01E95B7E
:102F2000FF4F808191810197F1F7FE01E95BFF4F2F
:102F300091838083CE018B519F4F0E94511B0E9431
:102F4000FF0E88EB90E00E94580ECE0186519F4FF5
:102F50000E94311AFE01ED5BFF4F80E090E0A8E493
:102F6000B2E480839183A283B3838E01015C1F4FFF
:102F7000FE01ED5BFF4F608171818281938120E0D2
:102F800030E04AEF54E40E941F02DC01CB01F8015B
:102F900080839183A283B383FE01FF966081718158
:102FA0008281938120E030E040E85FE30E94790372
:102FB00088232CF481E090E09EAF8DAF46C0FE01E7
:102FC000FF96608171818281938120E03FEF4FE71E
:102FD00057E40E941903181664F5FE01ED5BFF4FDC
:102FE000608171818281938120E030E040E251E490
:102FF0000E941F02DC01CB01BC01CD010E944900EF
:10300000DC01CB019EAF8DAF0FC088EC90E09CAF90
:103010008BAF8BAD9CAD0197F1F79CAF8BAF8DADB6
:103020009EAD01979EAF8DAF8DAD9EAD009769F7B8
:1030300016C0FE01FF9660817181828193810E949A
:103040004900DC01CB019EAF8DAF8DAD9EAD9AAF37
:1030500089AF89AD9AAD0197F1F79AAF89AFCE01EB
:1030600086519F4F0E94511B80E090E0A8E4B2E49B
:103070008DAB9EABAFABB8AF6DA97EA98FA998AD54
:1030800020E030E04AEF54E40E941F02DC01CB0153
:1030900089AB9AABABABBCAB69A97AA98BA99CA94C
:1030A00020E030E040E85FE30E94790388232CF4BD
:1030B00081E090E098AB8FA73FC069A97AA98BA95E
:1030C0009CA920E03FEF4FE757E40E941903181630
:1030D0004CF56DA97EA98FA998AD20E030E040E2C3
:1030E00051E40E941F02DC01CB01BC01CD010E9412
:1030F0004900DC01CB0198AB8FA70FC088EC90E0B2
:103100009EA78DA78DA59EA50197F1F79EA78DA7D8
:103110008FA598A9019798AB8FA78FA598A900971D
:1031200069F714C069A97AA98BA99CA90E944900D2
:10313000DC01CB0198AB8FA78FA598A99CA78BA783
:103140008BA59CA50197F1F79CA78BA7FE01EC51DD
:10315000FF4F10820E945B1EFE01EC51FF4F8083E7
:10316000FE01EC51FF4F8081882309F479C00E9451
:10317000FF0E89EC90E00E94580E80E090E8ABE3EF
:10318000B5E48FA398A7A9A7BAA76FA178A589A529
:103190009AA520E030E04AEF54E40E941F02DC01CF
:1031A000CB018BA39CA3ADA3BEA36BA17CA18DA1DE
:1031B0009EA120E030E040E85FE30E94790388238D
:1031C0002CF481E090E09AA389A33FC06BA17CA17D
:1031D0008DA19EA120E03FEF4FE757E40E94190325
:1031E00018164CF56FA178A589A59AA520E030E0C6
:1031F00040E251E40E941F02DC01CB01BC01CD0181
:103200000E944900DC01CB019AA389A30FC088EC7E
:1032100090E098A38F8F8F8D98A10197F1F798A3D5
:103220008F8F89A19AA101979AA389A389A19AA1B5
:10323000009769F7CAC96BA17CA18DA19EA10E94CC
:103240004900DC01CB019AA389A389A19AA19E8F91
:103250008D8F8D8D9E8D0197F1F79E8F8D8FB5C9C6
:103260000E94FF0E8BE890E00E94580E80E090E4F0
:10327000ACE1B5E4898F9A8FAB8FBC8F698D7A8D65
:103280008B8D9C8D20E030E04AEF54E40E941F02B9
:10329000DC01CB018D8B9E8BAF8BB88F6D897E89C6
:1032A0008F89988D20E030E040E85FE30E94790349
:1032B00088232CF481E090E09C8B8B8B3FC06D8940
:1032C0007E898F89988D20E03FEF4FE757E40E9479
:1032D000190318164CF5698D7A8D8B8D9C8D20E025
:1032E00030E040E251E40E941F02DC01CB01BC014E
:1032F000CD010E944900DC01CB019C8B8B8B0FC060
:1033000088EC90E09A8B898B89899A890197F1F7EB
:103310009A8B898B8B899C8901979C8B8B8B8B8952
:103320009C89009769F751C96D897E898F89988D2D
:103330000E944900DC01CB019C8B8B8B8B899C8983
:10334000988B8F878F8598890197F1F7988B8F8756
:103350003CC90E945B1EFE01EF51FF4F8083FE01BE
:10336000EF51FF4F8081833018F00E94271C2DC938
:103370000E94FF0E8BE890E00E94580E80E090E4DF
:10338000ACE1B5E48B879C87AD87BE876B857C8578
:103390008D859E8520E030E04AEF54E40E941F02B4
:1033A000DC01CB018F839887A987BA876F817885E5
:1033B00089859A8520E030E040E85FE30E94790348
:1033C00088232CF481E090E09E838D833FC06F8141
:1033D000788589859A8520E03FEF4FE757E40E9482
:1033E000190318164CF56B857C858D859E8520E02C
:1033F00030E040E251E40E941F02DC01CB01BC013D
:10340000CD010E944900DC01CB019E838D830FC05A
:1034100088EC90E09C838B838B819C810197F1F7F2
:103420009C838B838D819E8101979E838D838D816B
:103430009E81009769F7C9C86F81788589859A85CB
:103440000E944900DC01CB019E838D838D819E818A
:103450009A83898389819A810197F1F79A83898375
:10346000B4C80F931F93DF93CF93CDB7DEB76F9799
:103470000FB6F894DEBF0FBECDBF9F8F8E8F81E059
:1034800065E00E94810E1D8E8BC00E94A3058D30C9
:1034900019F08D8D8530C9F38D8D282F30E08E8DFC
:1034A0009F8D8C01020F131F0E94A305F8018083DA
:1034B00080E090E0AAEFB3E4898F9A8FAB8FBC8F46
:1034C000698D7A8D8B8D9C8D20E030E04AEF54E43D
:1034D0000E941F02DC01CB018D8B9E8BAF8BB88FBE
:1034E0006D897E898F89988D20E030E040E85FE328
:1034F0000E94790388232CF481E090E09C8B8B8BD5
:103500003FC06D897E898F89988D20E03FEF4FE71E
:1035100057E40E94190318164CF5698D7A8D8B8D2E
:103520009C8D20E030E040E251E40E941F02DC016B
:10353000CB01BC01CD010E944900DC01CB019C8B79
:103540008B8B0FC088EC90E09A8B898B89899A8944
:103550000197F1F79A8B898B8B899C8901979C8BBA
:103560008B8B8B899C89009769F714C06D897E8944
:103570008F89988D0E944900DC01CB019C8B8B8B3D
:103580008B899C89988B8F878F8598890197F1F714
:10359000988B8F878AE20E94690C8D8D8F5F8D8F4B
:1035A0008D8D863008F471CF80E090E0AAEFB3E40F
:1035B0008B879C87AD87BE876B857C858D859E8537
:1035C00020E030E04AEF54E40E941F02DC01CB010E
:1035D0008F839887A987BA876F81788589859A852F
:1035E00020E030E040E85FE30E94790388232CF478
:1035F00081E090E09E838D833FC06F8178858985CF
:103600009A8520E03FEF4FE757E40E941903181610
:103610004CF56B857C858D859E8520E030E040E211
:1036200051E40E941F02DC01CB01BC01CD010E94CC
:103630004900DC01CB019E838D830FC088EC90E0B4
:103640009C838B838B819C810197F1F79C838B8377
:103650008D819E8101979E838D838D819E810097B0
:1036600069F714C06F81788589859A850E94490021
:10367000DC01CB019E838D838D819E819A8389831A
:1036800089819A810197F1F79A8389836F960FB6A2
:10369000F894DEBF0FBECDBFCF91DF911F910F9188
:1036A0000895DF93CF93CDB7DEB761970FB6F89447
:1036B000DEBF0FBECDBF998B888B1F860EC08F8556
:1036C000282F30E088899989FC01E20FF31F80815F
:1036D0000E94441E8F858F5F8F878F85853078F39A
:1036E00080E090E0A8E4B2E48B879C87AD87BE873A
:1036F0006B857C858D859E8520E030E04AEF54E423
:103700000E941F02DC01CB018F839887A987BA87AB
:103710006F81788589859A8520E030E040E85FE315
:103720000E94790388232CF481E090E09E838D83AE
:103730003FC06F81788589859A8520E03FEF4FE70C
:1037400057E40E94190318164CF56B857C858D850E
:103750009E8520E030E040E251E40E941F02DC013F
:10376000CB01BC01CD010E944900DC01CB019E834D
:103770008D830FC088EC90E09C838B838B819C8130
:103780000197F1F79C838B838D819E8101979E83A6
:103790008D838D819E81009769F714C06F81788534
:1037A00089859A850E944900DC01CB019E838D8327
:1037B0008D819E819A83898389819A810197F1F70E
:1037C0009A83898361960FB6F894DEBF0FBECDBF92
:1037D000CF91DF910895DF93CF93CDB7DEB70E94ED
:1037E000FF0E2AED30E080E060E0A9010E94C30EE8
:1037F00029EE30E081E060E0A9010E94C30ECF9184
:10380000DF910895DF93CF93CDB7DEB70E94FF0E0F
:1038100086EF90E00E94580E8FE090E00E94521CCC
:103820000E94FF0E86E091E00E94580E83E090E037
:103830000E94521C0E94FF0E82E191E00E94580EED
:103840008FE090E00E94521CCF91DF910895DF93AA
:10385000CF93CDB7DEB70E94FF0E83E291E00E94C6
:10386000580E8CE390E00E94521CCF91DF91089596
:10387000DF93CF93CDB7DEB780914C0190914D018E
:10388000A0914E01B0914F010196A11DB11D8093F1
:103890004C0190934D01A0934E01B0934F01CF91F5
:1038A000DF910895DF93CF93CDB7DEB761970FB661
:1038B000F894DEBF0FBECDBF9C878B8710924C0162
:1038C00010924D0110924E0110924F018B859C85F4
:1038D000CC01A0E0B0E089839A83AB83BC83CE01A6
:1038E00005969E878D87E5E4F1E0F88BEF87F6E09B
:1038F000F98BEF85F88900808F8598890196988BE0
:103900008F87ED85FE8500828D859E8501969E8739
:103910008D8799899150998BE989EE2351F7CE01D2
:1039200005960E94241D88E39CE10E948E1D209133
:103930004C0130914D0140914E0150914F018981D0
:103940009A81AB81BC81281739074A075B0778F356
:103950000E94A01D61960FB6F894DEBF0FBECDBFCA
:10396000CF91DF910895DF93CF93CDB7DEB70E945B
:10397000090F80E090E0CF91DF9108951F920F92A0
:103980000FB60F9211242F933F934F935F936F9332
:103990007F938F939F93AF93BF93EF93FF93DF93A7
:1039A000CF93CDB7DEB78091500190915101009730
:1039B00029F0E0915001F09151010995CF91DF91EB
:1039C000FF91EF91BF91AF919F918F917F916F91F7
:1039D0005F914F913F912F910F900FBE0F901F90CD
:1039E00018951F920F920FB60F9211242F933F93A9
:1039F0004F935F936F937F938F939F93AF93BF93F7
:103A0000EF93FF93DF93CF93CDB7DEB78091500153
:103A100090915101009729F0E0915001F0915101EE
:103A20000995CF91DF91FF91EF91BF91AF919F9158
:103A30008F917F916F915F914F913F912F910F9057
:103A40000FBE0F901F901895DF93CF9300D0CDB786
:103A5000DEB79A838983E981FA818581882329F5F4
:103A6000AFE4B0E0EFE4F0E0808188608C93AEE4F6
:103A7000B0E0EEE4F0E08081982F987FE981FA8150
:103A800084818770892B8C93ACE4B0E0E981FA8162
:103A90008081918111969C938E93A9E5B0E0E9E530
:103AA000F0E0808184608C9334C0AFE4B0E0EFE458
:103AB000F0E0808188608C93AEE4B0E0EEE4F0E06A
:103AC000808188608C93AEE4B0E0EEE4F0E0808129
:103AD000982F987FE981FA8184818770892B8C9354
:103AE000ACE4B0E0E981FA818081918111969C93E8
:103AF0008E93AAE4B0E0E981FA81828193811196E4
:103B00009C938E93A9E5B0E0E9E5F0E080818061C7
:103B10008C930F900F90CF91DF910895DF93CF9307
:103B200000D0CDB7DEB79A83898389819A8190933B
:103B30005101809350010F900F90CF91DF91089524
:103B4000DF93CF93CDB7DEB7EFE4F0E01082EEE481
:103B5000F0E01082ECE4F0E011821082EAE4F0E0A0
:103B600011821082CF91DF910895DF93CF93CDB76B
:103B7000DEB728970FB6F894DEBF0FBECDBF98878B
:103B80008F831E821D82EBE2F0E082E08083EF8172
:103B9000F88583819481A581B68189839A83AB83DB
:103BA000BC83EAE2F0E088E18083E0E4F0E080E8D2
:103BB0008083A0E4B0E0E0E4F0E08081282F297F5A
:103BC000EF81F8858081882F90E0880F991F822BE4
:103BD0008C93A0E4B0E0E0E4F0E08081282F277F20
:103BE000EF81F8858281882F90E0880F991F880FD8
:103BF000991F880F991F822B8C93A0E4B0E0E0E41A
:103C0000F0E08081282F2F7CEF81F8858181882F3B
:103C100090E082959295907F9827807F9827822BBD
:103C20008C9389819A81AB81BC81880F991FAA1FCF
:103C3000BB1F880F991FAA1FBB1F880F991FAA1FA0
:103C4000BB1F9C01AD0180E092E1AAE7B0E0BC019E
:103C5000CD010E94D61EDA01C90101979E838D8392
:103C6000E0E4F0E08D819E81892F99278083E9E24D
:103C7000F0E08D81808328960FB6F894DEBF0FBEEA
:103C8000CDBFCF91DF910895DF93CF930F92CDB742
:103C9000DEB78983EBE2F0E08081882F90E08072CC
:103CA00090700097B9F3ECE2F0E0898180830F9087
:103CB000CF91DF910895DF93CF93CDB7DEB7EBE2DD
:103CC000F0E080818823DCF7ECE2F0E08081CF91A6
:103CD000DF910895DF93CF9300D00F92CDB7DEB779
:103CE0009B838A8319820EC08981282F30E08A81C4
:103CF0009B81FC01E20FF31F80810E94441E898199
:103D00008F5F89838981282F30E08A819B81FC0124
:103D1000E20FF31F8081882339F70F900F900F90E7
:103D2000CF91DF9108950F931F93DF93CF9300D02E
:103D30000F92CDB7DEB79B838A8319828981282FA2
:103D400030E08A819B818C01020F131F0E945B1E51
:103D5000F80180830FC089818F5F89838981282F33
:103D600030E08A819B818C01020F131F0E945B1E31
:103D7000F80180838981282F30E08A819B81FC01B2
:103D8000E20FF31F8081833231F78981282F30E0E1
:103D90008A819B81FC01E20FF31F10820F900F902C
:103DA0000F90CF91DF911F910F910895A1E21A2EEC
:103DB000AA1BBB1BFD010DC0AA1FBB1FEE1FFF1FCF
:103DC000A217B307E407F50720F0A21BB30BE40B1F
:103DD000F50B661F771F881F991F1A9469F7609566
:103DE0007095809590959B01AC01BD01CF01089520
:103DF0002F923F924F925F926F927F928F929F92FB
:103E0000AF92BF92CF92DF92EF92FF920F931F93E8
:103E1000CF93DF93CDB7DEB7CA1BDB0B0FB6F89499
:103E2000DEBF0FBECDBF09942A88398848885F84D9
:103E30006E847D848C849B84AA84B984C884DF804A
:103E4000EE80FD800C811B81AA81B981CE0FD11D2E
:103E50000FB6F894DEBF0FBECDBFED010895FB0194
:103E60009F01E8944230C4F04532B4F44A3029F45A
:103E700097FB1EF4909581959F4F642F77270E94A2
:103E8000601F805D8A330CF0895D8193CB010097C0
:103E9000A1F716F45DE251931082C9010C94501FF2
:103EA000DC01FC01672F71917723E1F7329704C0A1
:103EB0007C916D9370836291AE17BF07C8F308952C
:103EC000AA1BBB1B51E107C0AA1FBB1FA617B70740
:103ED00010F0A61BB70B881F991F5A95A9F780955C
:0C3EE0009095BC01CD010895F894FFCF2F
:103EEC00506C7A20656E7465722070617373004338
:103EFC006F6E6669726D20506173730052696768EA
:103F0C00742050617373776F72640057726F6E67B1
:103F1C002050617373776F726400456E7465722004
:103F2C006F6C64207061737300456E746572204E03
:103F3C006577207061737300436F6E6669726D20D4
:103F4C004E657720706173730050617373776F7275
:103F5C0064204368616E676564002D203A43686194
:103F6C006E67652050617373002B203A4F70656E3D
:103F7C0020446F6F7200446F6F7220556E6C6F63CC
:103F8C006B696E672E00446F6F72204F70656E65A3
:103F9C006400446F6F72206973204C6F636B696EA1
:103FAC00672E00536563757269747920416C617278
:103FBC006D2E2E2E2E0000000000000000000300CD
:0C3FCC0000802500000000851E0501009B
:0400000300001E12C9
:00000001FF
